:10E000008E00FFBDE753CE0000DFD0DFD7DFD5861F
:10E010005397D97F00DB7F00DC7F00DDDFDE9FE0F0
:10E02000DFE286C097E4CEE66ABDE54FCE55AAC6CC
:10E030006486058B05188155271F816E2714811072
:10E040002625CEFFFFEC018C00002714CEE6D64F2C
:10E05000201CCEE6DF86012015CEE6E88603200EE2
:10E06000CEE6F186042007BDE55DCEE6CC4F97DB1A
:10E07000BDE54FCEE685BDE54FBDE5A2CE00C0BDF6
:10E08000E5E9BDE5F34D27EB814426037EE0BA8147
:10E090004726037EE1D9815326037EE20C814C267C
:10E0A000037EE274815026037EE365815226037E5F
:10E0B000E476CEE6A2BDE54F20B908BDE5E9BDE5B1
:10E0C000FE5D2615BDE5E9A60026E796D18B809773
:10E0D000D396D0890097D2203896E697D196E597C7
:10E0E000D0BDE5E9A600812C27114D26C596D18B20
:10E0F0008097D396D0890097D2201608BDE5E9BD58
:10E10000E5FEBDE5E95D27AA6D0026A6DEE508DF90
:10E11000D296D184F097E896D097E77F00D48D24EB
:10E12000BDE76B261196D4810225F396D397D1963D
:10E13000D297D07EE07396E897D196E797D0BDE767
:10E14000607EE07396E7D6E8BDE55ACEE6AABDE567
:10E150004FCE00C0DFE9C6108D295A26FBCEE6ADB2
:10E16000BDE54FCE00C0C610A6000881202509815C
:10E170007F2405BDE7712005862EBDE7715A26E88C
:10E180007EE5988620BDE77196D4262596D091E746
:10E19000260696D191E827158620BDE771BDE77167
:10E1A000DEE9A70008DFE9DEE708DFE73986019747
:10E1B000D496D4810126E1DEE7A60008DFE7DEE998
:10E1C000A70008DFE9BDE55D96D291E7260A96D360
:10E1D00091E82604860297D43908BDE5E9BDE5FE3D
:10E1E000A60027037EE0B25D2704DEE5DFE296E0CD
:10E1F0009AE127029EE096E33696E23696DF36965F
:10E20000DE3696DC3696DD3696E4363B08BDE5E92B
:10E21000BDE5FEBDE5E96D0026575D2704DEE5DFBF
:10E22000D796D7D6D8BDE55ACEE6ADBDE54FDED7F9
:10E23000A600BDE55D8620BDE771BDE5A2CE00C0AC
:10E24000BDE5E9A6002607DED708DFD720D3812D5C
:10E250002607DED709DFD720C8812E26037EE0738C
:10E26000BDE5FE5D270BDED796E6A70008DFD720C9
:10E27000B07EE0B208BDE5E9BDE5FEBDE5E96D00B3
:10E2800026EFBDE760BDE5F38153276F813A270D87
:10E29000810D27EE810A27EABDE76020F3BDE57214
:10E2A00097EB16BDE57297E79BEB97EBBDE5729791
:10E2B000E89BEB97EB96E89BE697E896E799E5975E
:10E2C000E7DEE7BDE57297DA9BEB97EB5D2714BDC0
:10E2D000E572369BEB97EB327D00DA2603A7000848
:10E2E0005A26ECBDE5729BEB26087D00DA27A97E55
:10E2F000E073CEE688BDE54F7EE073BDE76097DA58
:10E30000BDE5721697EBBDE57297E79BEB97EBBD0A
:10E31000E57297E89BEB97EB96E89BE697E896E724
:10E3200099E597E7DEE7C0032718BDE572369BEB5A
:10E3300097EB96DA8131260632A700082001325A7F
:10E3400026E8BDE5729BEB81FF261196DA8137271F
:10E35000118138270D813927097EE298CEE695BDD7
:10E36000E54F7EE07308A600BDE5F38149270481EF
:10E370005326030897D9BDE5E9BDE5FE5D27229642
:10E38000E597E996E697EABDE5E9A600812C261116
:10E3900008BDE5E9BDE5FE5D2707BDE5E96D0027A0
:10E3A000037EE0B2DEE508DFE596E690EA97E696C2
:10E3B000E592E997E5DEE98D1E96E59AE626F89660
:10E3C000D981492609CEE6B1BDE54F7EE073CEE6A0
:10E3D000BFBDE54F7EE073C6107D00E5260696E6DC
:10E3E0001124011696E61097E696E5820097E596C9
:10E3F000D98149263F863ABDE77117BDE55DD7EB68
:10E40000DFE996E9BDE55D96E99BEB97EB96EABD02
:10E41000E55D96EA9BEB97EB4FBDE55DA60036BD4B
:10E42000E55D329BEB97EB085A26F196EB40BDE594
:10E430005D7EE5988653BDE7718631BDE771178B28
:10E440000397EBBDE55DDFE996E9BDE55D96E99BE8
:10E45000EB97EB96EABDE55D96EA9BEB97EBA600A2
:10E4600036BDE55D329BEB97EB085A26F196EB4300
:10E47000BDE55D7EE59808BDE5E9BDE5F34D260601
:10E48000BDE5047EE073DFE7CEE71B6D002772A1D8
:10E4900000270808080808080820F0DFE9DEE70878
:10E4A000BDE5E96D00265ADEE9EE04BDE54F863D87
:10E4B000BDE771DEE9E601EE02C1012607A600BD57
:10E4C000E55D200AA600BDE55DA601BDE55D8620EF
:10E4D000BDE771BDE5A2CE00C0BDE5E9A600271EDF
:10E4E000BDE5FE5D271BDEE9E601EE02C101260661
:10E4F00096E6A700200896E5A70096E6A7017EE02D
:10E50000737EE0B2CEE700BDE54F96DCBDE55DCEA3
:10E51000E703BDE54F96DDBDE55DCEE707BDE54F01
:10E5200096DED6DFBDE55ACEE70BBDE54F96E0D6C9
:10E53000E1BDE55ACEE710BDE54F96E2D6E3BDE575
:10E540005ACEE715BDE54F96E4BDE55D7EE598A69C
:10E55000002706BDE7710820F6398D0117364444BF
:10E5600044448D0132840F8B30813A25028B077E23
:10E57000E7714F8D04484848483716BDE760BDE550
:10E58000F381302511813A250A81412509814724EB
:10E5900005800780301B3339860DBDE771860A7E02
:10E5A000E771CE00C05FBDE760810D2737810A2784
:10E5B0003381082719817F2715812025E98180244F
:10E5C000E5C10F24E15CA70008BDE77120D85D27F5
:10E5D000D55A098608BDE7718620BDE7718608BD5A
:10E5E000E77120C28DB26F0039A600812026030892
:10E5F00020F73981612506817B24028BE0395F7F1A
:10E6000000E57F00E6A6008DEA81302534813A25B9
:10E610000A8141252C8147242880078030494949B7
:10E6200049497900E67900E5497900E67900E5494C
:10E630007900E67900E5497900E67900E5085C2093
:10E64000C439CEE6FABDE54F3297E43297DD329712
:10E65000DC3297DE3297DF3233C001D7E382009796
:10E66000E29FE0BDE5047EE0733B0D0A556E6976DE
:10E67000657273616C204D6F6E69746F72203638ED
:10E6800030300D0A005D20004572726F722069689B
:10E6900065780D0A004572726F7220737265630DA2
:10E6A0000A004572726F720D0A00203A00203A206B
:10E6B000003A303030303030303146460D0A0053A9
:10E6C0003930333030303046430D0A00556E6B6EB2
:10E6D0006F776E0D0A004D43363830300D0A004D0D
:10E6E00043363830310D0A004844363330310D0A94
:10E6F000004D42383836310D0A005357490D0A0093
:10E70000413D0020423D0020583D002053503D0037
:10E710002050433D00204343523D00410100DCE7CF
:10E7200043420100DDE745580200DEE7475302009F
:10E73000E0E749500200E0E74C430100E4E74F0006
:10E740000000004100420058005350005043004375
:10E750004352008603B7801801018615B780183927
:10E76000B68018840127F9B6801939B6801884015B
:0EE770003936B68018840227F932B78019397D
:03FF80007EE00020
:03FF88007EE073A5
:03FF90007EE77198
:03FF98007EE54FB4
:03FFA0007EE76099
:03FFA8007EE76B86
:08FFF800E669E642E669E0005B
:00000001FF
